{
  "_format": "hh-sol-artifact-1",
  "contractName": "Todo",
  "sourceName": "contracts/Todo.sol",
  "abi": [
    {
      "anonymous": false,
      "inputs": [
        {
          "indexed": false,
          "internalType": "uint256",
          "name": "id",
          "type": "uint256"
        },
        {
          "indexed": false,
          "internalType": "uint256",
          "name": "date",
          "type": "uint256"
        },
        {
          "indexed": false,
          "internalType": "string",
          "name": "content",
          "type": "string"
        },
        {
          "indexed": false,
          "internalType": "string",
          "name": "author",
          "type": "string"
        },
        {
          "indexed": false,
          "internalType": "bool",
          "name": "done",
          "type": "bool"
        }
      ],
      "name": "TaskCreated",
      "type": "event"
    },
    {
      "anonymous": false,
      "inputs": [
        {
          "indexed": false,
          "internalType": "uint256",
          "name": "id",
          "type": "uint256"
        },
        {
          "indexed": false,
          "internalType": "bool",
          "name": "done",
          "type": "bool"
        },
        {
          "indexed": false,
          "internalType": "uint256",
          "name": "date",
          "type": "uint256"
        }
      ],
      "name": "TaskStatusToggled",
      "type": "event"
    },
    {
      "inputs": [
        {
          "internalType": "string",
          "name": "_content",
          "type": "string"
        },
        {
          "internalType": "string",
          "name": "_author",
          "type": "string"
        }
      ],
      "name": "createTask",
      "outputs": [],
      "stateMutability": "nonpayable",
      "type": "function"
    },
    {
      "inputs": [],
      "name": "getTasks",
      "outputs": [
        {
          "components": [
            {
              "internalType": "uint256",
              "name": "id",
              "type": "uint256"
            },
            {
              "internalType": "uint256",
              "name": "date",
              "type": "uint256"
            },
            {
              "internalType": "string",
              "name": "content",
              "type": "string"
            },
            {
              "internalType": "string",
              "name": "author",
              "type": "string"
            },
            {
              "internalType": "bool",
              "name": "done",
              "type": "bool"
            },
            {
              "internalType": "uint256",
              "name": "dateComplete",
              "type": "uint256"
            }
          ],
          "internalType": "struct Todo.Task[]",
          "name": "",
          "type": "tuple[]"
        }
      ],
      "stateMutability": "view",
      "type": "function"
    },
    {
      "inputs": [
        {
          "internalType": "uint256",
          "name": "",
          "type": "uint256"
        }
      ],
      "name": "tasks",
      "outputs": [
        {
          "internalType": "uint256",
          "name": "id",
          "type": "uint256"
        },
        {
          "internalType": "uint256",
          "name": "date",
          "type": "uint256"
        },
        {
          "internalType": "string",
          "name": "content",
          "type": "string"
        },
        {
          "internalType": "string",
          "name": "author",
          "type": "string"
        },
        {
          "internalType": "bool",
          "name": "done",
          "type": "bool"
        },
        {
          "internalType": "uint256",
          "name": "dateComplete",
          "type": "uint256"
        }
      ],
      "stateMutability": "view",
      "type": "function"
    },
    {
      "inputs": [
        {
          "internalType": "uint256",
          "name": "id",
          "type": "uint256"
        }
      ],
      "name": "toggleDone",
      "outputs": [],
      "stateMutability": "nonpayable",
      "type": "function"
    }
  ],
  "bytecode": "0x608060405234801561001057600080fd5b50610e35806100206000396000f3fe608060405234801561001057600080fd5b506004361061004c5760003560e01c806304a87e3814610051578063292a45851461006f5780638d9776721461008b578063d81ef739146100c0575b600080fd5b6100596100dc565b604051610066919061094c565b60405180910390f35b61008960048036038101906100849190610ab7565b6102f8565b005b6100a560048036038101906100a09190610b5b565b610418565b6040516100b796959493929190610bf0565b60405180910390f35b6100da60048036038101906100d59190610b5b565b610571565b005b6060600060015467ffffffffffffffff8111156100fc576100fb61098c565b5b60405190808252806020026020018201604052801561013557816020015b610122610652565b81526020019060019003908161011a5790505b50905060005b6001548110156102f0576000808281526020019081526020016000206040518060c0016040529081600082015481526020016001820154815260200160028201805461018690610c8e565b80601f01602080910402602001604051908101604052809291908181526020018280546101b290610c8e565b80156101ff5780601f106101d4576101008083540402835291602001916101ff565b820191906000526020600020905b8154815290600101906020018083116101e257829003601f168201915b5050505050815260200160038201805461021890610c8e565b80601f016020809104026020016040519081016040528092919081815260200182805461024490610c8e565b80156102915780601f1061026657610100808354040283529160200191610291565b820191906000526020600020905b81548152906001019060200180831161027457829003601f168201915b505050505081526020016004820160009054906101000a900460ff161515151581526020016005820154815250508282815181106102d2576102d1610cc0565b5b602002602001018190525080806102e890610d1e565b91505061013b565b508091505090565b6040518060c001604052806001548152602001428152602001838152602001828152602001600015158152602001600081525060008060015481526020019081526020016000206000820151816000015560208201518160010155604082015181600201908051906020019061036f92919061068a565b50606082015181600301908051906020019061038c92919061068a565b5060808201518160040160006101000a81548160ff02191690831515021790555060a082015181600501559050507fb322bdd3250d405f7845d27fa1f0753f8f7e18e40886bc254b89005c3e9c032460015442848460006040516103f4959493929190610d67565b60405180910390a16001600081548092919061040f90610d1e565b91905055505050565b600060205280600052604060002060009150905080600001549080600101549080600201805461044790610c8e565b80601f016020809104026020016040519081016040528092919081815260200182805461047390610c8e565b80156104c05780601f10610495576101008083540402835291602001916104c0565b820191906000526020600020905b8154815290600101906020018083116104a357829003601f168201915b5050505050908060030180546104d590610c8e565b80601f016020809104026020016040519081016040528092919081815260200182805461050190610c8e565b801561054e5780601f106105235761010080835404028352916020019161054e565b820191906000526020600020905b81548152906001019060200180831161053157829003601f168201915b5050505050908060040160009054906101000a900460ff16908060050154905086565b6000806000838152602001908152602001600020600101541461059357600080fd5b600080600083815260200190815260200160002090508060040160009054906101000a900460ff16158160040160006101000a81548160ff0219169083151502179055508060040160009054906101000a900460ff166105f45760006105f6565b425b81600501819055507fcb1ceae718a6ae11d5daf00e292e318717e0acf2d326ed670df0e5ff67ba5000828260040160009054906101000a900460ff16836005015460405161064693929190610dc8565b60405180910390a15050565b6040518060c0016040528060008152602001600081526020016060815260200160608152602001600015158152602001600081525090565b82805461069690610c8e565b90600052602060002090601f0160209004810192826106b857600085556106ff565b82601f106106d157805160ff19168380011785556106ff565b828001600101855582156106ff579182015b828111156106fe5782518255916020019190600101906106e3565b5b50905061070c9190610710565b5090565b5b80821115610729576000816000905550600101610711565b5090565b600081519050919050565b600082825260208201905092915050565b6000819050602082019050919050565b6000819050919050565b61076c81610759565b82525050565b600081519050919050565b600082825260208201905092915050565b60005b838110156107ac578082015181840152602081019050610791565b838111156107bb576000848401525b50505050565b6000601f19601f8301169050919050565b60006107dd82610772565b6107e7818561077d565b93506107f781856020860161078e565b610800816107c1565b840191505092915050565b60008115159050919050565b6108208161080b565b82525050565b600060c08301600083015161083e6000860182610763565b5060208301516108516020860182610763565b506040830151848203604086015261086982826107d2565b9150506060830151848203606086015261088382826107d2565b91505060808301516108986080860182610817565b5060a08301516108ab60a0860182610763565b508091505092915050565b60006108c28383610826565b905092915050565b6000602082019050919050565b60006108e28261072d565b6108ec8185610738565b9350836020820285016108fe85610749565b8060005b8581101561093a578484038952815161091b85826108b6565b9450610926836108ca565b925060208a01995050600181019050610902565b50829750879550505050505092915050565b6000602082019050818103600083015261096681846108d7565b905092915050565b6000604051905090565b600080fd5b600080fd5b600080fd5b600080fd5b7f4e487b7100000000000000000000000000000000000000000000000000000000600052604160045260246000fd5b6109c4826107c1565b810181811067ffffffffffffffff821117156109e3576109e261098c565b5b80604052505050565b60006109f661096e565b9050610a0282826109bb565b919050565b600067ffffffffffffffff821115610a2257610a2161098c565b5b610a2b826107c1565b9050602081019050919050565b82818337600083830152505050565b6000610a5a610a5584610a07565b6109ec565b905082815260208101848484011115610a7657610a75610987565b5b610a81848285610a38565b509392505050565b600082601f830112610a9e57610a9d610982565b5b8135610aae848260208601610a47565b91505092915050565b60008060408385031215610ace57610acd610978565b5b600083013567ffffffffffffffff811115610aec57610aeb61097d565b5b610af885828601610a89565b925050602083013567ffffffffffffffff811115610b1957610b1861097d565b5b610b2585828601610a89565b9150509250929050565b610b3881610759565b8114610b4357600080fd5b50565b600081359050610b5581610b2f565b92915050565b600060208284031215610b7157610b70610978565b5b6000610b7f84828501610b46565b91505092915050565b610b9181610759565b82525050565b600082825260208201905092915050565b6000610bb382610772565b610bbd8185610b97565b9350610bcd81856020860161078e565b610bd6816107c1565b840191505092915050565b610bea8161080b565b82525050565b600060c082019050610c056000830189610b88565b610c126020830188610b88565b8181036040830152610c248187610ba8565b90508181036060830152610c388186610ba8565b9050610c476080830185610be1565b610c5460a0830184610b88565b979650505050505050565b7f4e487b7100000000000000000000000000000000000000000000000000000000600052602260045260246000fd5b60006002820490506001821680610ca657607f821691505b60208210811415610cba57610cb9610c5f565b5b50919050565b7f4e487b7100000000000000000000000000000000000000000000000000000000600052603260045260246000fd5b7f4e487b7100000000000000000000000000000000000000000000000000000000600052601160045260246000fd5b6000610d2982610759565b91507fffffffffffffffffffffffffffffffffffffffffffffffffffffffffffffffff821415610d5c57610d5b610cef565b5b600182019050919050565b600060a082019050610d7c6000830188610b88565b610d896020830187610b88565b8181036040830152610d9b8186610ba8565b90508181036060830152610daf8185610ba8565b9050610dbe6080830184610be1565b9695505050505050565b6000606082019050610ddd6000830186610b88565b610dea6020830185610be1565b610df76040830184610b88565b94935050505056fea26469706673582212203299a515e7efe302f75964d7a9456626e93f1a1287b7f27b417f97f36181ad1e64736f6c63430008090033",
  "linkReferences": {},
  "deployedLinkReferences": {}
}